:0A167800EF1F70011E144E70F722E0
:0414D300AD07AC06AF
:1014D700E4FBFAC3EB9DEA9C501A9000007F017E63
:1014E70000121678A3E5826441458370F00BBB00B8
:0414F700010A80DF87
:0114FB0022CE
:10165400C2A4C2A5D2A68F807F057E00121678C2CE
:02166400A622BC
:10166600D2A4C2A5D2A68F807F057E00121678C2AC
:02167600A622AA
:10156F007F011216547F057E001214D3E508B401D3
:10157F00047BDE80027B207D01E4FF12163A7F8020
:04158F0012165422BA
:0812CB008F688B698A6A896B48
:1012D300ED7006E56824808004E56824C0FF1216DB
:1012E300547F04AB69AA6AA96B90000E1204E4FE52
:1012F30064306005EE642E70257E0EEE7C0024FFC4
:10130300F582EC34FFF583AB69AA6AA96B1204E496
:101313008E827583001205231EBE01DFDFC5AB6914
:10132300AA6AA96B1204CBFF60101216667401251A
:0A1333006BF56BE4356AF56A80E49F
:01133D00228D
:10163A008F688B69ED7006E56824808004E568246C
:0A164A00C0FF121654AF69021666C5
:1013B1007F381216547F057E001214D37F3812161F
:1013C100547F057E001214D37F381216547F057E98
:1013D100001214D37F381216547F081216547F015D
:1013E1001216547F061216547F057E001214D37F05
:0413F1000C02165480
:100FF600756810120E5AEF12071E10930010980112
:10100600109D0210A203108E77107A7B10667D1059
:10101600527E1089B71075BB1061BD104DBE10848D
:10102600D71070DB105CDD1048DE107FE7106BEB2D
:101036001057ED1043EE10A7FF000010A7E4F56867
:101046008062756801805D756802805875680380E6
:1010560053756805804E7568068049756807804433
:10106600756808803F75680A803A75680B80357523
:10107600680C803075680D802B75680F8026756842
:10108600108021756811801C7568128017756804B8
:101096008012756809800D75680E80087568138062
:0610A60003756814AF6839
:0110AC002221
:100E5A0075B00FE5B0540FF569640F603E7F647E8C
:100E6A0000121678E569640F6031E5B0540FF56930
:100E7A0044F0F5B0E5B054F0F56AE5B0640F600CE3
:100E8A0075B00FE50824FFB392A780EED2A77F14AE
:100E9A007E001214D3E569256AFF2220A0227F640E
:100EAA007E0012167820A01820A009E50824FFB3B6
:100EBA0092A780F4D2A77F037E001214D37F002268
:100ECA0020A1227F647E0012167820A11820A10991
:100EDA00E50824FFB392A780F4D2A77F037E00120D
:100EEA0014D37F012220A2227F647E00121678206A
:100EFA00A21820A209E50824FFB392A780F4D2A77A
:100F0A007F037E001214D37F022220A3227F647EF5
:100F1A000012167820A31820A309E50824FFB3922B
:100F2A00A780F4D2A77F037E001214D37F03227F07
:010F3A00FFB7
:010F3B002293
:1014A2000202000000020202020000000202020226
:1014B2000202000202020202020002020000000016
:1014C2000001030202020203020200000000000304
:0114D2000118
:101434008B688A69896AAB6BAA6CA96DC003C00208
:10144400C001AB68AA69A96A120646AB68AA69A971
:101454006A120626C003C002C001AB68AA69A96A61
:071464009000031206C522EF
:1015F9008B688A69896A900003120695ED120511B4
:10160900AB68AA69A96A900003A3E475F001020511
:01161900458B
:061593008B688A69896A79
:10159900900003A374FFF5F0120545AB68AA69A989
:0B15A9006A9000031206951204CBFFAD
:0115B4002214
:10146B008B688A69896AAB6BAA6CA96DC003C002D1
:10147B00C001AB68AA69A96A120646AB68AA69A93A
:10148B006A120626C003C002C001AB68AA69A96A2A
:07149B009000031206C522B8
:10161A008B798A7A897B9000031206951205F0ABC2
:10162A0079AA7AA97B900003A3E475F00402054520
:0615B5008B798A7A897B24
:1015BB00900003A374FF75F0FC120545AB79AA7A72
:0B15CB00A97B9000031206951205A0FA
:0115D60022F2
:0210AD008D684C
:1010AF00EF24DD602C24FB602014602114601224D7
:1010BF00FD600A24FE600E2404E4F9801679018095
:1010CF00127902800E7903800A79048006790580EF
:1010DF00027906E56824DD602E24FB60221460236C
:1010EF0014601424FD600C24FE60102404701CE4B2
:1010FF00FE801A7E0180167E0280127E03800E7E95
:10110F0004800A7E0580067E068002E4FEEEFD3333
:10111F0095E0FCE9FB3395E0FA9014A275F007EB2C
:10112F0012060AEA75F007A42583F583E5822DF5EB
:09113F0082E5833CF583E493FF93
:011148002284
:0811D5008F6B8E6A8D698C6836
:1011DD00E56C24D6603624FD601D24FE6043240496
:1011ED00705AAF70AE6FAD6EAC6DAB6BAA6AA9697C
:1011FD00A86812000A803DAB70AA6FA96EA86DAFEA
:10120D006BAE6AAD69AC681200068028AF70AE6F28
:10121D00AD6EAC6DAB6BAA6AA969A8681200FB80B4
:10122D0013AB70AA6FA96EA86DAF6BAE6AAD69AC4A
:10123D00681202048F748E738D728C71AF74AE73DD
:04124D00AD72AC7161
:01125100227A
:0E13F5008F6E8E6D8D6C8C6B8B688A69896A29
:101403001215B58F728E718D708C6FE4FFFE7D2087
:101413007C41AB72AA71A970A86F1200FBAB6EAAD4
:101423006DA96CA86B12000AAB68AA69A96A0216B7
:011433001A9E
:081252008B688A69896A8D6BC3
:10125A00E4F578F57775768075753FF574C3E56BB7
:10126A006480F8E574648098501FAF78AE77AD76E5
:10127A00AC757BCD7ACC79CC783D1200FB8F788E19
:10128A00778D768C75057480D4AB68AA69A96A12C1
:10129A0015B58F738E728D718C70AF78AE77AD760F
:1012AA00AC75AB6FAA6EA96DA86C1200FBAB73AAE2
:1012BA0072A971A87012000AAB68AA69A96A021613
:0112CA001A09
:1015D7002531352E3366004552524F522100373898
:1015E7003928293435362B2D3132332A2F302E64C2
:0215F700DE3DD7
:061682000109000108004F
:100F3C00E4F52775A0FF7F64FE1214D31213B112CF
:100F4C00156F12133E8F26EF9015E593FFB43D0CF1
:100F5C00AE27052774282EF876238056EFB4640B41
:100F6C00152774282527F8763080D7E5269015E5C7
:100F7C009364DE702AE50870047F0180027F008F85
:100F8C00081509E508B401047BDE80027B207D0195
:100F9C00E4FF12163AE5092480FF12165480A3E5EB
:100FAC00269015E593FFAE27052774282EF8A60783
:100FBC008090E509C3941040107F1C1216547F05D5
:100FCC007E001214D3150980E974282527F8E4F65D
:100FDC00F527F509FB7A007928120C638F258E24EE
:0A0FEC008D238C221214FC020F4E1C
:1014FC00755AFF755B15755CD78F608E5F8D5E8C32
:10150C005D7B007A0079481208507B007A0079489C
:07151C007D017F010212CBEB
:060C63008B488A49894A12
:100C6900E4F557F558F559F56B756C00756D7CFB16
:100C79007A00795112146B756B00756C00756DCC27
:100C89007B007A00794B1214347B007A00794B7D12
:100C9900231215F9E4F557AB48054AE54AAA497004
:100CA900020549020DCFE55AB42313AB4EAA4FA949
:100CB9005090FFFF1204E464237003020E32C3E56F
:100CC9005A648094B04068D3E55A648094B9505FFF
:100CD90074D0255AF55AE5587026E557AC5A701163
:100CE900EC1202AB7B007A00795112161A05578073
:100CF9000FEC1202AB7B007A0079511213F50557FC
:100D0900E558B4011BAC5AEC1202AB8F6F8E6E8D95
:100D19006D8C6C7B007A007951AD571212520557D0
:100D2900AB48054AE54AAA49702C0549020DCFE5A9
:100D39005AB42E24755801E557700CFB7A00795185
:100D4900FFFEFDFC12161A755701AB48054AE54A24
:100D5900AA4970020549806EAB4EAA4FA95090FF6F
:100D6900FF1204E4FFAD5A1210ADEF146043146092
:100D79005F147003020E2C24036003020CAFE557C5
:100D89007009E55A6428600312154A7B007A0079D4
:100D99004BAD5A1215F9AB48054AE54AAA49700202
:100DA900054914F91204CBF55AE4F557F558020C24
:100DB900AF7B007A00794B121593AB48054AE54A97
:100DC900AA497002054914F91204CBF55A020CAF6D
:100DD9007B007A00794B1215938F5B7B007A00793F
:100DE900511215B58F638E628D618C607B007A001C
:100DF90079511215B58F5F8E5E8D5D8C5C855B6C4C
:100E090085637085626F85616E85606D1211D58FFE
:100E1900678E668D658C647B007A00795112161A8B
:100E2900020CAF12154A020CAFAB48AA49A94A12E3
:100E390004CB6010E412051104254AF54AE435494A
:100E4900F54980E5AB54AA55A95690FFFC1205C097
:010E59002276
:10133E007548140509E548B41414120FF68F48E5E4
:10134E0009B401F1E548B411EC75481480E7E509DC
:10135E00B4010312156FE509C3941040057F1812EE
:10136E001654E509B4210312154AE548B41121E5D6
:10137E000924FEFF7B20E4FD12163A7F027E001246
:10138E0014D3E509247EFF12165415091509801091
:10139E00E5486412600AE5489015E593FF1216665B
:0213AE00AF4846
:0113B000221A
:10154A0012156F7BFF7A1579DE7D017F041212CBAB
:10155A007B217D017F0A12163A120FF6EF6414609E
:05156A00F875E72022E6
:03000000021149A1
:0C114900787FE4F6D8FD7581DF0211907C
:10000300020314E86480F8E933E83360110460F014
:10001300ED33EC337009E8FCE9FDEAFEEBFF220463
:1000230060DED3EB9FEA9EE99DE8C2E78CF0C2F75E
:1000330095F0400CE8CCF8E9CDF9EACEFAEBCFFB2A
:100043001202DF85D0F05804700320D5B3E80470A2
:10005300075002B2D502031E92D5EC0460F7E4CC3C
:10006300C0E0C398F8603B94186008400DD0E0FBF3
:100073000202F6E4FBFAC9FC8028E830E406E4C98E
:10008300FBE4CAFCE830E305E4C9CACBFCE8540747
:100093006010F8C3E913F9EA13FAEB13FBEC13FC52
:1000A300D8F130F52FC3E49CFCEF9BFFEE9AFEEDF5
:1000B30099FDD0E0FBEF4E4D4C701222DB0302039F
:1000C3001BEC2CFCEF33FFEE33FEED33FDED30E79D
:1000D300EB0202F6EF2BFFEE3AFEED39FDD0E0FB2B
:1000E30050130BBB000302031EED13FDEE13FEEFD3
:0800F30013FFEC13FC0202F6FE
:1000FB00EC4D6011E8497017ED33EC3304600DE4FF
:10010B00FCFFFEFD22E933E8330470F802031412FE
:10011B0002DF58046009E4CC248150062850090200
:10012B00031E28400302031BC0E0EB4A7044B98056
:10013B0006D0E0FB02030AEF4E701CBD8008EBFFFC
:10014B00EAFEE9FD80EBE98DF0A4FEE5F00201E4A7
:10015B00E9CDF9EAFEEBFFEF89F0A4FCE5F0CE89DF
:10016B00F0A42EFFE435F0CD89F0A42DFEE435F09C
:10017B008067EF4E7005BD80D780C3EF8BF0A4ACCA
:10018B00F0EE8BF0A42CFCE435F0F8EF8AF0A42C05
:10019B00E5F038FCE433CB8DF0A42CFCE5F03BF818
:1001AB00EE8AF0A42CFCE5F038F8E433CF89F0A408
:1001BB002CFCE5F038CF3400CE89F0A42FFFE5F00E
:1001CB003EFEE433C98DF0A42EFEE5F039CD8AF066
:1001DB00A42FFFE5F03EFEE43DFD33D0E0FB5007DE
:1001EB000BBB000F02031EEC2CFCEF33FFEE33FEB8
:0601FB00ED33FD0202F6E7
:1002010002031EEC5D046005E85904700302031447
:100211001202DF580460F6EC4860F2EC7004FDFE57
:10022100FF22C860DB2481C85009C39860025006D0
:1002310002031B9850CAF582E9294B4A7005AB822B
:1002410002030A75F0007C1A7880C3EF9BEE9AEDE9
:1002510099400DC3EF9BFFEE9AFEED99FDE842F048
:10026100DC23ACF0D0E0FFD0E0FED0E0FDAB82209B
:10027100E7101BEB60BAEC2CFCEF33FFEE33FEED25
:1002810033FD0202F6E803F830E705C0F075F0002F
:10029100EF2FFFEE33FEED33FD40B830E7C280AA09
:1002A10075F020800E75F010800575F0087D007ED8
:1002B100007F003392D530D503120592EC33401004
:1002C100EF33FFEE33FEED33FDEC33FCD5F0ED22E1
:0E02D100E5F0247EA2D513CC92E7CDCEFF221D
:1007F400E56E245AF8E6056E227857300702785AD7
:10080400E475F0011206160204CB2000EB7F2ED211
:10081400008018EF540F2490D43440D4FF30040BDC
:10082400EF24BFB41A0050032461FFE56F60021582
:100834006F0572E5727002057130070D7857E47523
:10084400F001120616EF0205110215237403D207F4
:100854008003E4C207F56E8B578A588959E4F56F13
:10086400F571F572E56F60077F2012082F80F5752A
:1008740070FFC201C200C202C203C205C206C2089E
:100884001207FDFF700D3007057F00120840AF729C
:10089400AE7122B4255FC2D5C2041207FDFF24D075
:1008A400B40A00501A75F00A786F30D50508B6FFFF
:1008B4000106C6A426F620D5047002D20380D924EA
:1008C400CFB41A00EF5004C2E5D204020B2DD201BA
:1008D40080C6D20080C0D20280BCD2D580BAD205F4
:1008E40080B47F2012082F2002077401B56F0040E6
:1008F400F11207F4FF12082F020868D208D206800A
:10090400951207F4FB1207F4FA1207F4F94A4B7034
:100914000679247A0C7BFF20022EE56F602A7E0084
:100924008E827583001204E460060EEE657070F02A
:10093400C2D5EBC0E0EAC0E0E9C0E0EE120B8DD016
:10094400E0F9D0E0FAD0E0FB1204CBFF60AAEBC0E0
:10095400E0EAC0E0E9C0E012082FD0E02401F9D0B9
:10096400E03400FAD0E0FBE5700460DCD570D98097
:1009740087D20280A2120B7060F7E5707001041236
:100984000329A970600DE570600914F570120C1745
:10099400EF60F3EA30E702F404C3995077EAF425F0
:1009A400700430E701E404F570800D120B7060C12F
:1009B400EA05702570120329EA786DF630E701E440
:1009C400257004D5700420050114120B8DE4C0E0D9
:1009D400120C17786DE6601320E70714F612081757
:1009E400802204F6D0E014C0E07F00120817E570FE
:1009F400600712080E1570800B30050312080ED024
:100A0400E0020868D0E00480C5120B7060A0E570B5
:100A140004120329786DEAF6E570200502600104EA
:050A24002404120B8DFB
:100A290074FF04C0E0120C17120817E570200502C4
:100A3900600312080ED0E0B570E87F4512082178EE
:100A49006DE67F2B30E7047F2DF404C0E012082FF8
:100A5900D0E075F00A84C0F0120818D0E012081826
:100A6900020868791080027908C206C2088008D293
:100A7900D5790A8004790AC2D5E570047002F57047
:100A8900E4FAFDFEFF1207F4FC7B082001131207AC
:100A9900F4FD7B1030000A1207F4FE1207F4FF7B05
:100AA90020EC3382D592D55013C3E43000069FFF62
:100AB900E49EFEE42001039DFDE49CFCE4CBF8C226
:100AC90001EC700CCFCECDCCE824F8F870F3801788
:100AD900C3EF33FFEE33FEED33FDEC33FCEB33FBB9
:100AE900994002FB0FD8E9EB300105F8D0E0C44882
:100AF900B201C0E00AEC4D4E4F78207B0070C2EA8B
:100B0900B5700040BCC0E0120B8FD0F0D0E02001DE
:100B190004C4C0E0C4B201C0F0120818D0F0D5F086
:100B2900EB02086812071E0905530A6C5808D64CCF
:100B390008D2420A704F0A78440A784908EB430AF6
:100B49007E5509AF460A0D450979470C445008DA24
:100B59002D08DE2E09012B08E22308FF200C2D2A7F
:100B6900089A48000008F9E570B4FF037570061289
:100B790007F4FC1207F4FD1207F4FE1207F4FF78DC
:100B890066020358790AA2D5200314300509B91061
:100B9900020404B9080104A2D52006025001042068
:100BA90002689202B56F005034C0E07F203003190B
:100BB9007F30A20272067205500F120BE6C202C202
:100BC90006C205C2087F30800F300503E9C0E01274
:100BD900082F300503D0E0F9D0E0B56FCC30051708
:100BE9007F30B9100C12082F7F583004077F7880A6
:100BF90003B9080312082F3002057F2D02082F7F41
:100C0900202008F87F2B2006F322920280CF7F0054
:100C1900B4070050052466F8E6FF22286E756C6C4F
:100C29002900D2011207F43001F8C201786F30D5DA
:100C39000108F602089A2D504349581207F4240373
:100C4900B405004001E4900C3F93120820743A1255
:0A0C59000820D203756F04020A6C34
:1002DF00E9D2E7C933E833F892D5EDD2E7CD33EC65
:0702EF0033FC5002B2D522DE
:1002F600EC30E7100FBF000C0EBE00080DBD000469
:100306000BEB6014A2D5EB13FCED92E7FD2274FF14
:10031600FCFDFEFF22E480F8A2D574FF13FC7D806D
:03032600E480EF81
:10032900F920E72824F950037907E4F42402FB189B
:10033900DBFDE624FB5014E9600DE4F618E604F64B
:0F034900B40A08E4F6D9F57401F60A22C2D522E7
:10035800ED33EC3392D5FA602AB4FF33EDC2E77B74
:10036800FF60067A03797DE4227A03798620D50432
:100378007A037981224E614E002B494E46002D4961
:100388004E4600E47A08F608DAFC7B00740722E897
:10039800C0E0ECC0E0EDC0E0EEC0E0EFC0E0EA7520
:1003A800F010A4CAABF075F04DA42BFBE435F0FCBB
:1003B800EA2410FAEB34C5FBEC34D9FCEDC2E7FFB4
:1003C80075F056A4F42411C5F0F434C58FF0A42AAE
:1003D800E5F03BE43CF620E71412048BD0E0FFD0B4
:1003E800E0FED0E0FDD0E0FC1202048014F4041218
:1003F800048BD0E0FFD0E0FED0E0FDD0E0FC12009E
:10040800FBD0E0F8E6FAEDD2E7CD33EC332482FBFB
:10041800E4C3CF33CFCE33CECD33CD33DBF37B073D
:1004280075F00A846004F6081B0AE5F0F6088FF0F8
:10043800740AA4FFACF08EF0740AA42CFEACF05041
:10044800010C8DF0740AA42CFDE435F0F608DBDE0F
:0304580074072204
:10045B003F8000004120000042C80000447A0000A9
:10046B00461C400047C35000497424004B1896802B
:10047B004CBEBC205A0E1BCA6753C21C749DC5AE22
:10048B00FB60065407601C23231204B9EB5438603D
:10049B00091204A51204B41200FBECF8EDF9EEFA04
:1004AB00EFCB22EB1204B480F1543803241C9004DC
:1004BB005BFE93FC0EEE93FD0EEE930ECE93FF229E
:10115500020F3CE493A3F8E493A34003F68001F265
:1011650008DFF48029E493A3F85407240CC8C3339B
:10117500C4540F4420C8834004F456800146F6DF6A
:10118500E4800B0102040810204080901682E47E62
:10119500019360BCA3FF543F30E509541FFEE4935F
:1011A500A360010ECF54C025E060A840B8E493A326
:1011B500FAE493A3F8E493A3C8C582C8CAC583CA51
:1011C500F0A3C8C582C8CAC583CADFE9DEE780BE09
:011688000061
:1004CB00BB010689828A83E0225002E722BBFE022F
:0904DB00E32289828A83E4932262
:1004E400BB010CE58229F582E5833AF583E02250CD
:1004F40006E92582F8E622BBFE06E92582F8E22217
:0D050400E58229F582E5833AF583E4932230
:10051100BB010689828A83F0225002F722BBFE01C9
:02052100F322C3
:10052300F8BB010DE58229F582E5833AF583E8F00E
:10053300225006E92582C8F622BBFE05E92582C8BA
:02054300F222A2
:10054500BB010DC58229C582C5833AC5830207440F
:100555005011C58229F808E5F026F618F5F0E58270
:1005650036F622BBFE11C58229F808E225F0F5F022
:10057500F218E23582F222F8E58229F582E5832A2E
:0D058500F58374019325F0F5F0E49338221E
:0E059200C3E49FFFE49EFEE49DFDE49CFC227A
:1005A000BB010789828A830207665005E9F80207C2
:1005B0005ABBFE05E9F802077289828A8302077E28
:1005C000BB010DE58229F582E5833AF583020766D2
:1005D0005007E92582F802075ABBFE07E92582F891
:1005E000020772E58229F582E5833AF58302077EE8
:1005F000BB010789828A8302079A5005E9F802073E
:0A0600008EBBFE05E9F80207A622F2
:0C060A00A42582F582E5F03583F58322FB
:10061600FAE6FB0808E6F925F0F618E6CA3AF622E5
:10062600BB010789828A830207C45005E9F80207DD
:10063600B2BBFE05E9F80207D689828A830207E87B
:10064600BB011A89828A83D0F0D0E0F8D0E0F9D0D5
:10065600E0FAD0E0FBE8C0E0C0F00207CD5016E9B2
:10066600F8D083D082D0E0F9D0E0FAD0E0FBC082A7
:10067600C0830207BBBBFE16E9F8D083D082D0E068
:0F068600F9D0E0FAD0E0FBC082C0830207DF2288
:10069500BB010DE58229F582E5833AF5830207C49E
:1006A5005007E92582F80207B2BBFE07E92582F863
:1006B5000207D6E58229F582E5833AF5830207E844
:1006C500BB0120E58229F582E5833AF583D0F0D098
:1006D500E0F8D0E0F9D0E0FAD0E0FBE8C0E0C0F007
:1006E5000207CD5018E92582F8D083D082D0E0F9F1
:1006F500D0E0FAD0E0FBC082C0830207BBBBFE1886
:10070500E92582F8D083D082D0E0F9D0E0FAD0E0B4
:09071500FBC082C0830207DF2251
:10071E00D083D082F8E4937012740193700DA3A36A
:10072E0093F8740193F5828883E47374029368607E
:06073E00EFA3A3A380DF7E
:10152300EFB40A07740D12152E740A309811A89996
:10153300B8130CC2983098FDA899C298B811F63028
:0715430099FDC299F5992200
:10074400C5F0F8A3E028F0C5F0F8E5821582700240
:060754001583E038F022DD
:0C075A00E6FC08E6FD08E6FE08E6FF22CB
:0C076600E0FCA3E0FDA3E0FEA3E0FF2206
:0C077200E2FC08E2FD08E2FE08E2FF22C3
:10077E00E493FC740193FD740293FE740393FF22C1
:0C078E00ECF608EDF608EEF608EFF62297
:0C079A00ECF0A3EDF0A3EEF0A3EFF022D2
:0C07A600ECF208EDF208EEF208EFF2228F
:0907B200E6FB08E6FA08E6F9226C
:0907BB00EBF608EAF608E9F62263
:0907C400E0FBA3E0FAA3E0F92236
:0907CD00EBF0A3EAF0A3E9F0222D
:0907D600E2FB08E2FA08E2F92254
:0907DF00EBF208EAF208E9F2224B
:0C07E800E493FB740193FA740293F9226D
:00000001FF
